{
  "_format": "hh-sol-artifact-1",
  "contractName": "OceanToken",
  "sourceName": "contracts/OceanToken.sol",
  "abi": [
    {
      "inputs": [
        {
          "internalType": "uint256",
          "name": "cap",
          "type": "uint256"
        },
        {
          "internalType": "uint256",
          "name": "reward",
          "type": "uint256"
        }
      ],
      "stateMutability": "nonpayable",
      "type": "constructor"
    },
    {
      "anonymous": false,
      "inputs": [
        {
          "indexed": true,
          "internalType": "address",
          "name": "owner",
          "type": "address"
        },
        {
          "indexed": true,
          "internalType": "address",
          "name": "spender",
          "type": "address"
        },
        {
          "indexed": false,
          "internalType": "uint256",
          "name": "value",
          "type": "uint256"
        }
      ],
      "name": "Approval",
      "type": "event"
    },
    {
      "anonymous": false,
      "inputs": [
        {
          "indexed": true,
          "internalType": "address",
          "name": "from",
          "type": "address"
        },
        {
          "indexed": true,
          "internalType": "address",
          "name": "to",
          "type": "address"
        },
        {
          "indexed": false,
          "internalType": "uint256",
          "name": "value",
          "type": "uint256"
        }
      ],
      "name": "Transfer",
      "type": "event"
    },
    {
      "inputs": [
        {
          "internalType": "address",
          "name": "owner",
          "type": "address"
        },
        {
          "internalType": "address",
          "name": "spender",
          "type": "address"
        }
      ],
      "name": "allowance",
      "outputs": [
        {
          "internalType": "uint256",
          "name": "",
          "type": "uint256"
        }
      ],
      "stateMutability": "view",
      "type": "function"
    },
    {
      "inputs": [
        {
          "internalType": "address",
          "name": "spender",
          "type": "address"
        },
        {
          "internalType": "uint256",
          "name": "amount",
          "type": "uint256"
        }
      ],
      "name": "approve",
      "outputs": [
        {
          "internalType": "bool",
          "name": "",
          "type": "bool"
        }
      ],
      "stateMutability": "nonpayable",
      "type": "function"
    },
    {
      "inputs": [
        {
          "internalType": "address",
          "name": "account",
          "type": "address"
        }
      ],
      "name": "balanceOf",
      "outputs": [
        {
          "internalType": "uint256",
          "name": "",
          "type": "uint256"
        }
      ],
      "stateMutability": "view",
      "type": "function"
    },
    {
      "inputs": [],
      "name": "blockReward",
      "outputs": [
        {
          "internalType": "uint256",
          "name": "",
          "type": "uint256"
        }
      ],
      "stateMutability": "view",
      "type": "function"
    },
    {
      "inputs": [
        {
          "internalType": "uint256",
          "name": "amount",
          "type": "uint256"
        }
      ],
      "name": "burn",
      "outputs": [],
      "stateMutability": "nonpayable",
      "type": "function"
    },
    {
      "inputs": [
        {
          "internalType": "address",
          "name": "account",
          "type": "address"
        },
        {
          "internalType": "uint256",
          "name": "amount",
          "type": "uint256"
        }
      ],
      "name": "burnFrom",
      "outputs": [],
      "stateMutability": "nonpayable",
      "type": "function"
    },
    {
      "inputs": [],
      "name": "cap",
      "outputs": [
        {
          "internalType": "uint256",
          "name": "",
          "type": "uint256"
        }
      ],
      "stateMutability": "view",
      "type": "function"
    },
    {
      "inputs": [],
      "name": "decimals",
      "outputs": [
        {
          "internalType": "uint8",
          "name": "",
          "type": "uint8"
        }
      ],
      "stateMutability": "view",
      "type": "function"
    },
    {
      "inputs": [
        {
          "internalType": "address",
          "name": "spender",
          "type": "address"
        },
        {
          "internalType": "uint256",
          "name": "subtractedValue",
          "type": "uint256"
        }
      ],
      "name": "decreaseAllowance",
      "outputs": [
        {
          "internalType": "bool",
          "name": "",
          "type": "bool"
        }
      ],
      "stateMutability": "nonpayable",
      "type": "function"
    },
    {
      "inputs": [],
      "name": "destroy",
      "outputs": [],
      "stateMutability": "nonpayable",
      "type": "function"
    },
    {
      "inputs": [
        {
          "internalType": "address",
          "name": "spender",
          "type": "address"
        },
        {
          "internalType": "uint256",
          "name": "addedValue",
          "type": "uint256"
        }
      ],
      "name": "increaseAllowance",
      "outputs": [
        {
          "internalType": "bool",
          "name": "",
          "type": "bool"
        }
      ],
      "stateMutability": "nonpayable",
      "type": "function"
    },
    {
      "inputs": [],
      "name": "name",
      "outputs": [
        {
          "internalType": "string",
          "name": "",
          "type": "string"
        }
      ],
      "stateMutability": "view",
      "type": "function"
    },
    {
      "inputs": [],
      "name": "owner",
      "outputs": [
        {
          "internalType": "address payable",
          "name": "",
          "type": "address"
        }
      ],
      "stateMutability": "view",
      "type": "function"
    },
    {
      "inputs": [
        {
          "internalType": "uint256",
          "name": "reward",
          "type": "uint256"
        }
      ],
      "name": "setBlockRward",
      "outputs": [],
      "stateMutability": "nonpayable",
      "type": "function"
    },
    {
      "inputs": [],
      "name": "symbol",
      "outputs": [
        {
          "internalType": "string",
          "name": "",
          "type": "string"
        }
      ],
      "stateMutability": "view",
      "type": "function"
    },
    {
      "inputs": [],
      "name": "totalSupply",
      "outputs": [
        {
          "internalType": "uint256",
          "name": "",
          "type": "uint256"
        }
      ],
      "stateMutability": "view",
      "type": "function"
    },
    {
      "inputs": [
        {
          "internalType": "address",
          "name": "recipient",
          "type": "address"
        },
        {
          "internalType": "uint256",
          "name": "amount",
          "type": "uint256"
        }
      ],
      "name": "transfer",
      "outputs": [
        {
          "internalType": "bool",
          "name": "",
          "type": "bool"
        }
      ],
      "stateMutability": "nonpayable",
      "type": "function"
    },
    {
      "inputs": [
        {
          "internalType": "address",
          "name": "sender",
          "type": "address"
        },
        {
          "internalType": "address",
          "name": "recipient",
          "type": "address"
        },
        {
          "internalType": "uint256",
          "name": "amount",
          "type": "uint256"
        }
      ],
      "name": "transferFrom",
      "outputs": [
        {
          "internalType": "bool",
          "name": "",
          "type": "bool"
        }
      ],
      "stateMutability": "nonpayable",
      "type": "function"
    }
  ],
  "bytecode": "0x60a06040523480156200001157600080fd5b5060405162002f1d38038062002f1d83398181016040528101906200003791906200060e565b620000476200021f60201b60201c565b600a620000559190620007e5565b8262000062919062000836565b6040518060400160405280600b81526020017f4f6365616e20546f6b656e0000000000000000000000000000000000000000008152506040518060400160405280600381526020017f4f435400000000000000000000000000000000000000000000000000000000008152508160039081620000df919062000af1565b508060049081620000f1919062000af1565b505050600081116200013a576040517f08c379a0000000000000000000000000000000000000000000000000000000008152600401620001319062000c39565b60405180910390fd5b80608081815250505033600560006101000a81548173ffffffffffffffffffffffffffffffffffffffff021916908373ffffffffffffffffffffffffffffffffffffffff160217905550620001e6600560009054906101000a900473ffffffffffffffffffffffffffffffffffffffff16620001bb6200021f60201b60201c565b600a620001c99190620007e5565b63042c1d80620001da919062000836565b6200022860201b60201c565b620001f66200021f60201b60201c565b600a620002049190620007e5565b8162000211919062000836565b600681905550505062000da8565b60006012905090565b62000238620002b960201b60201c565b816200024e620002c360201b620004511760201c565b6200025a919062000c5b565b11156200029e576040517f08c379a0000000000000000000000000000000000000000000000000000000008152600401620002959062000ce6565b60405180910390fd5b620002b58282620002cd60201b62000ad21760201c565b5050565b6000608051905090565b6000600254905090565b620002dd620002b960201b60201c565b81620002f3620002c360201b620004511760201c565b620002ff919062000c5b565b111562000343576040517f08c379a00000000000000000000000000000000000000000000000000000000081526004016200033a9062000ce6565b60405180910390fd5b6200035a82826200035e60201b62000b3c1760201c565b5050565b600073ffffffffffffffffffffffffffffffffffffffff168273ffffffffffffffffffffffffffffffffffffffff1603620003d0576040517f08c379a0000000000000000000000000000000000000000000000000000000008152600401620003c79062000d58565b60405180910390fd5b620003e460008383620004d660201b60201c565b8060026000828254620003f8919062000c5b565b92505081905550806000808473ffffffffffffffffffffffffffffffffffffffff1673ffffffffffffffffffffffffffffffffffffffff16815260200190815260200160002060008282546200044f919062000c5b565b925050819055508173ffffffffffffffffffffffffffffffffffffffff16600073ffffffffffffffffffffffffffffffffffffffff167fddf252ad1be2c89b69c2b068fc378daa952ba7f163c4a11628f55a4df523b3ef83604051620004b6919062000d8b565b60405180910390a3620004d260008383620005ae60201b60201c565b5050565b600073ffffffffffffffffffffffffffffffffffffffff168373ffffffffffffffffffffffffffffffffffffffff16141580156200054057504173ffffffffffffffffffffffffffffffffffffffff168273ffffffffffffffffffffffffffffffffffffffff1614155b80156200057a5750600073ffffffffffffffffffffffffffffffffffffffff164173ffffffffffffffffffffffffffffffffffffffff1614155b15620005915762000590620005b360201b60201c565b5b620005a9838383620005c960201b62000c9b1760201c565b505050565b505050565b620005c7416006546200022860201b60201c565b565b505050565b600080fd5b6000819050919050565b620005e881620005d3565b8114620005f457600080fd5b50565b6000815190506200060881620005dd565b92915050565b60008060408385031215620006285762000627620005ce565b5b60006200063885828601620005f7565b92505060206200064b85828601620005f7565b9150509250929050565b7f4e487b7100000000000000000000000000000000000000000000000000000000600052601160045260246000fd5b60008160011c9050919050565b6000808291508390505b6001851115620006e357808604811115620006bb57620006ba62000655565b5b6001851615620006cb5780820291505b8081029050620006db8562000684565b94506200069b565b94509492505050565b600082620006fe5760019050620007d1565b816200070e5760009050620007d1565b8160018114620007275760028114620007325762000768565b6001915050620007d1565b60ff84111562000747576200074662000655565b5b8360020a91508482111562000761576200076062000655565b5b50620007d1565b5060208310610133831016604e8410600b8410161715620007a25782820a9050838111156200079c576200079b62000655565b5b620007d1565b620007b1848484600162000691565b92509050818404811115620007cb57620007ca62000655565b5b81810290505b9392505050565b600060ff82169050919050565b6000620007f282620005d3565b9150620007ff83620007d8565b92506200082e7fffffffffffffffffffffffffffffffffffffffffffffffffffffffffffffffff8484620006ec565b905092915050565b60006200084382620005d3565b91506200085083620005d3565b92508282026200086081620005d3565b915082820484148315176200087a576200087962000655565b5b5092915050565b600081519050919050565b7f4e487b7100000000000000000000000000000000000000000000000000000000600052604160045260246000fd5b7f4e487b7100000000000000000000000000000000000000000000000000000000600052602260045260246000fd5b600060028204905060018216806200090357607f821691505b602082108103620009195762000918620008bb565b5b50919050565b60008190508160005260206000209050919050565b60006020601f8301049050919050565b600082821b905092915050565b600060088302620009837fffffffffffffffffffffffffffffffffffffffffffffffffffffffffffffffff8262000944565b6200098f868362000944565b95508019841693508086168417925050509392505050565b6000819050919050565b6000620009d2620009cc620009c684620005d3565b620009a7565b620005d3565b9050919050565b6000819050919050565b620009ee83620009b1565b62000a06620009fd82620009d9565b84845462000951565b825550505050565b600090565b62000a1d62000a0e565b62000a2a818484620009e3565b505050565b5b8181101562000a525762000a4660008262000a13565b60018101905062000a30565b5050565b601f82111562000aa15762000a6b816200091f565b62000a768462000934565b8101602085101562000a86578190505b62000a9e62000a958562000934565b83018262000a2f565b50505b505050565b600082821c905092915050565b600062000ac66000198460080262000aa6565b1980831691505092915050565b600062000ae1838362000ab3565b9150826002028217905092915050565b62000afc8262000881565b67ffffffffffffffff81111562000b185762000b176200088c565b5b62000b248254620008ea565b62000b3182828562000a56565b600060209050601f83116001811462000b69576000841562000b54578287015190505b62000b60858262000ad3565b86555062000bd0565b601f19841662000b79866200091f565b60005b8281101562000ba35784890151825560018201915060208501945060208101905062000b7c565b8683101562000bc3578489015162000bbf601f89168262000ab3565b8355505b6001600288020188555050505b505050505050565b600082825260208201905092915050565b7f45524332304361707065643a2063617020697320300000000000000000000000600082015250565b600062000c2160158362000bd8565b915062000c2e8262000be9565b602082019050919050565b6000602082019050818103600083015262000c548162000c12565b9050919050565b600062000c6882620005d3565b915062000c7583620005d3565b925082820190508082111562000c905762000c8f62000655565b5b92915050565b7f45524332304361707065643a2063617020657863656564656400000000000000600082015250565b600062000cce60198362000bd8565b915062000cdb8262000c96565b602082019050919050565b6000602082019050818103600083015262000d018162000cbf565b9050919050565b7f45524332303a206d696e7420746f20746865207a65726f206164647265737300600082015250565b600062000d40601f8362000bd8565b915062000d4d8262000d08565b602082019050919050565b6000602082019050818103600083015262000d738162000d31565b9050919050565b62000d8581620005d3565b82525050565b600060208201905062000da2600083018462000d7a565b92915050565b60805161215962000dc4600039600061056001526121596000f3fe608060405234801561001057600080fd5b50600436106101165760003560e01c806370a08231116100a257806395d89b411161007157806395d89b41146102d1578063a457c2d7146102ef578063a9059cbb1461031f578063aaf3cd651461034f578063dd62ed3e1461036b57610116565b806370a082311461025d57806379cc67901461028d57806383197ef0146102a95780638da5cb5b146102b357610116565b806323b872dd116100e957806323b872dd146101a5578063313ce567146101d5578063355274ea146101f3578063395093511461021157806342966c681461024157610116565b806306fdde031461011b578063095ea7b3146101395780630ac168a11461016957806318160ddd14610187575b600080fd5b61012361039b565b6040516101309190611493565b60405180910390f35b610153600480360381019061014e919061154e565b61042d565b60405161016091906115a9565b60405180910390f35b61017161044b565b60405161017e91906115d3565b60405180910390f35b61018f610451565b60405161019c91906115d3565b60405180910390f35b6101bf60048036038101906101ba91906115ee565b61045b565b6040516101cc91906115a9565b60405180910390f35b6101dd610553565b6040516101ea919061165d565b60405180910390f35b6101fb61055c565b60405161020891906115d3565b60405180910390f35b61022b6004803603810190610226919061154e565b610584565b60405161023891906115a9565b60405180910390f35b61025b60048036038101906102569190611678565b610630565b005b610277600480360381019061027291906116a5565b610644565b60405161028491906115d3565b60405180910390f35b6102a760048036038101906102a2919061154e565b61068c565b005b6102b1610707565b005b6102bb6107d2565b6040516102c891906116f3565b60405180910390f35b6102d96107f8565b6040516102e69190611493565b60405180910390f35b6103096004803603810190610304919061154e565b61088a565b60405161031691906115a9565b60405180910390f35b6103396004803603810190610334919061154e565b610975565b60405161034691906115a9565b60405180910390f35b61036960048036038101906103649190611678565b610993565b005b6103856004803603810190610380919061170e565b610a4b565b60405161039291906115d3565b60405180910390f35b6060600380546103aa9061177d565b80601f01602080910402602001604051908101604052809291908181526020018280546103d69061177d565b80156104235780601f106103f857610100808354040283529160200191610423565b820191906000526020600020905b81548152906001019060200180831161040657829003601f168201915b5050505050905090565b600061044161043a610ca0565b8484610ca8565b6001905092915050565b60065481565b6000600254905090565b6000610468848484610e71565b6000600160008673ffffffffffffffffffffffffffffffffffffffff1673ffffffffffffffffffffffffffffffffffffffff16815260200190815260200160002060006104b3610ca0565b73ffffffffffffffffffffffffffffffffffffffff1673ffffffffffffffffffffffffffffffffffffffff16815260200190815260200160002054905082811015610533576040517f08c379a000000000000000000000000000000000000000000000000000000000815260040161052a90611820565b60405180910390fd5b6105478561053f610ca0565b858403610ca8565b60019150509392505050565b60006012905090565b60007f0000000000000000000000000000000000000000000000000000000000000000905090565b6000610626610591610ca0565b84846001600061059f610ca0565b73ffffffffffffffffffffffffffffffffffffffff1673ffffffffffffffffffffffffffffffffffffffff16815260200190815260200160002060008873ffffffffffffffffffffffffffffffffffffffff1673ffffffffffffffffffffffffffffffffffffffff16815260200190815260200160002054610621919061186f565b610ca8565b6001905092915050565b61064161063b610ca0565b826110f0565b50565b60008060008373ffffffffffffffffffffffffffffffffffffffff1673ffffffffffffffffffffffffffffffffffffffff168152602001908152602001600020549050919050565b600061069f8361069a610ca0565b610a4b565b9050818110156106e4576040517f08c379a00000000000000000000000000000000000000000000000000000000081526004016106db90611915565b60405180910390fd5b6106f8836106f0610ca0565b848403610ca8565b61070283836110f0565b505050565b600560009054906101000a900473ffffffffffffffffffffffffffffffffffffffff1673ffffffffffffffffffffffffffffffffffffffff163373ffffffffffffffffffffffffffffffffffffffff1614610797576040517f08c379a000000000000000000000000000000000000000000000000000000000815260040161078e906119a7565b60405180910390fd5b600560009054906101000a900473ffffffffffffffffffffffffffffffffffffffff1673ffffffffffffffffffffffffffffffffffffffff16ff5b600560009054906101000a900473ffffffffffffffffffffffffffffffffffffffff1681565b6060600480546108079061177d565b80601f01602080910402602001604051908101604052809291908181526020018280546108339061177d565b80156108805780601f1061085557610100808354040283529160200191610880565b820191906000526020600020905b81548152906001019060200180831161086357829003601f168201915b5050505050905090565b60008060016000610899610ca0565b73ffffffffffffffffffffffffffffffffffffffff1673ffffffffffffffffffffffffffffffffffffffff16815260200190815260200160002060008573ffffffffffffffffffffffffffffffffffffffff1673ffffffffffffffffffffffffffffffffffffffff16815260200190815260200160002054905082811015610956576040517f08c379a000000000000000000000000000000000000000000000000000000000815260040161094d90611a39565b60405180910390fd5b61096a610961610ca0565b85858403610ca8565b600191505092915050565b6000610989610982610ca0565b8484610e71565b6001905092915050565b600560009054906101000a900473ffffffffffffffffffffffffffffffffffffffff1673ffffffffffffffffffffffffffffffffffffffff163373ffffffffffffffffffffffffffffffffffffffff1614610a23576040517f08c379a0000000000000000000000000000000000000000000000000000000008152600401610a1a906119a7565b60405180910390fd5b610a2b610553565b600a610a379190611b8c565b81610a429190611bd7565b60068190555050565b6000600160008473ffffffffffffffffffffffffffffffffffffffff1673ffffffffffffffffffffffffffffffffffffffff16815260200190815260200160002060008373ffffffffffffffffffffffffffffffffffffffff1673ffffffffffffffffffffffffffffffffffffffff16815260200190815260200160002054905092915050565b610ada61055c565b81610ae3610451565b610aed919061186f565b1115610b2e576040517f08c379a0000000000000000000000000000000000000000000000000000000008152600401610b2590611c65565b60405180910390fd5b610b388282610b3c565b5050565b600073ffffffffffffffffffffffffffffffffffffffff168273ffffffffffffffffffffffffffffffffffffffff1603610bab576040517f08c379a0000000000000000000000000000000000000000000000000000000008152600401610ba290611cd1565b60405180910390fd5b610bb7600083836112c6565b8060026000828254610bc9919061186f565b92505081905550806000808473ffffffffffffffffffffffffffffffffffffffff1673ffffffffffffffffffffffffffffffffffffffff1681526020019081526020016000206000828254610c1e919061186f565b925050819055508173ffffffffffffffffffffffffffffffffffffffff16600073ffffffffffffffffffffffffffffffffffffffff167fddf252ad1be2c89b69c2b068fc378daa952ba7f163c4a11628f55a4df523b3ef83604051610c8391906115d3565b60405180910390a3610c9760008383611386565b5050565b505050565b600033905090565b600073ffffffffffffffffffffffffffffffffffffffff168373ffffffffffffffffffffffffffffffffffffffff1603610d17576040517f08c379a0000000000000000000000000000000000000000000000000000000008152600401610d0e90611d63565b60405180910390fd5b600073ffffffffffffffffffffffffffffffffffffffff168273ffffffffffffffffffffffffffffffffffffffff1603610d86576040517f08c379a0000000000000000000000000000000000000000000000000000000008152600401610d7d90611df5565b60405180910390fd5b80600160008573ffffffffffffffffffffffffffffffffffffffff1673ffffffffffffffffffffffffffffffffffffffff16815260200190815260200160002060008473ffffffffffffffffffffffffffffffffffffffff1673ffffffffffffffffffffffffffffffffffffffff168152602001908152602001600020819055508173ffffffffffffffffffffffffffffffffffffffff168373ffffffffffffffffffffffffffffffffffffffff167f8c5be1e5ebec7d5bd14f71427d1e84f3dd0314c0f7b2291e5b200ac8c7c3b92583604051610e6491906115d3565b60405180910390a3505050565b600073ffffffffffffffffffffffffffffffffffffffff168373ffffffffffffffffffffffffffffffffffffffff1603610ee0576040517f08c379a0000000000000000000000000000000000000000000000000000000008152600401610ed790611e87565b60405180910390fd5b600073ffffffffffffffffffffffffffffffffffffffff168273ffffffffffffffffffffffffffffffffffffffff1603610f4f576040517f08c379a0000000000000000000000000000000000000000000000000000000008152600401610f4690611f19565b60405180910390fd5b610f5a8383836112c6565b60008060008573ffffffffffffffffffffffffffffffffffffffff1673ffffffffffffffffffffffffffffffffffffffff16815260200190815260200160002054905081811015610fe0576040517f08c379a0000000000000000000000000000000000000000000000000000000008152600401610fd790611fab565b60405180910390fd5b8181036000808673ffffffffffffffffffffffffffffffffffffffff1673ffffffffffffffffffffffffffffffffffffffff16815260200190815260200160002081905550816000808573ffffffffffffffffffffffffffffffffffffffff1673ffffffffffffffffffffffffffffffffffffffff1681526020019081526020016000206000828254611073919061186f565b925050819055508273ffffffffffffffffffffffffffffffffffffffff168473ffffffffffffffffffffffffffffffffffffffff167fddf252ad1be2c89b69c2b068fc378daa952ba7f163c4a11628f55a4df523b3ef846040516110d791906115d3565b60405180910390a36110ea848484611386565b50505050565b600073ffffffffffffffffffffffffffffffffffffffff168273ffffffffffffffffffffffffffffffffffffffff160361115f576040517f08c379a00000000000000000000000000000000000000000000000000000000081526004016111569061203d565b60405180910390fd5b61116b826000836112c6565b60008060008473ffffffffffffffffffffffffffffffffffffffff1673ffffffffffffffffffffffffffffffffffffffff168152602001908152602001600020549050818110156111f1576040517f08c379a00000000000000000000000000000000000000000000000000000000081526004016111e8906120cf565b60405180910390fd5b8181036000808573ffffffffffffffffffffffffffffffffffffffff1673ffffffffffffffffffffffffffffffffffffffff16815260200190815260200160002081905550816002600082825461124891906120ef565b92505081905550600073ffffffffffffffffffffffffffffffffffffffff168373ffffffffffffffffffffffffffffffffffffffff167fddf252ad1be2c89b69c2b068fc378daa952ba7f163c4a11628f55a4df523b3ef846040516112ad91906115d3565b60405180910390a36112c183600084611386565b505050565b600073ffffffffffffffffffffffffffffffffffffffff168373ffffffffffffffffffffffffffffffffffffffff161415801561132f57504173ffffffffffffffffffffffffffffffffffffffff168273ffffffffffffffffffffffffffffffffffffffff1614155b80156113685750600073ffffffffffffffffffffffffffffffffffffffff164173ffffffffffffffffffffffffffffffffffffffff1614155b156113765761137561138b565b5b611381838383610c9b565b505050565b505050565b61139741600654611399565b565b6113a161055c565b816113aa610451565b6113b4919061186f565b11156113f5576040517f08c379a00000000000000000000000000000000000000000000000000000000081526004016113ec90611c65565b60405180910390fd5b6113ff8282610ad2565b5050565b600081519050919050565b600082825260208201905092915050565b60005b8381101561143d578082015181840152602081019050611422565b60008484015250505050565b6000601f19601f8301169050919050565b600061146582611403565b61146f818561140e565b935061147f81856020860161141f565b61148881611449565b840191505092915050565b600060208201905081810360008301526114ad818461145a565b905092915050565b600080fd5b600073ffffffffffffffffffffffffffffffffffffffff82169050919050565b60006114e5826114ba565b9050919050565b6114f5816114da565b811461150057600080fd5b50565b600081359050611512816114ec565b92915050565b6000819050919050565b61152b81611518565b811461153657600080fd5b50565b60008135905061154881611522565b92915050565b60008060408385031215611565576115646114b5565b5b600061157385828601611503565b925050602061158485828601611539565b9150509250929050565b60008115159050919050565b6115a38161158e565b82525050565b60006020820190506115be600083018461159a565b92915050565b6115cd81611518565b82525050565b60006020820190506115e860008301846115c4565b92915050565b600080600060608486031215611607576116066114b5565b5b600061161586828701611503565b935050602061162686828701611503565b925050604061163786828701611539565b9150509250925092565b600060ff82169050919050565b61165781611641565b82525050565b6000602082019050611672600083018461164e565b92915050565b60006020828403121561168e5761168d6114b5565b5b600061169c84828501611539565b91505092915050565b6000602082840312156116bb576116ba6114b5565b5b60006116c984828501611503565b91505092915050565b60006116dd826114ba565b9050919050565b6116ed816116d2565b82525050565b600060208201905061170860008301846116e4565b92915050565b60008060408385031215611725576117246114b5565b5b600061173385828601611503565b925050602061174485828601611503565b9150509250929050565b7f4e487b7100000000000000000000000000000000000000000000000000000000600052602260045260246000fd5b6000600282049050600182168061179557607f821691505b6020821081036117a8576117a761174e565b5b50919050565b7f45524332303a207472616e7366657220616d6f756e742065786365656473206160008201527f6c6c6f77616e6365000000000000000000000000000000000000000000000000602082015250565b600061180a60288361140e565b9150611815826117ae565b604082019050919050565b60006020820190508181036000830152611839816117fd565b9050919050565b7f4e487b7100000000000000000000000000000000000000000000000000000000600052601160045260246000fd5b600061187a82611518565b915061188583611518565b925082820190508082111561189d5761189c611840565b5b92915050565b7f45524332303a206275726e20616d6f756e74206578636565647320616c6c6f7760008201527f616e636500000000000000000000000000000000000000000000000000000000602082015250565b60006118ff60248361140e565b915061190a826118a3565b604082019050919050565b6000602082019050818103600083015261192e816118f2565b9050919050565b7f4f6e6c7920746865206f776e65722063616e2063616c6c20746869732066756e60008201527f6374696f6e000000000000000000000000000000000000000000000000000000602082015250565b600061199160258361140e565b915061199c82611935565b604082019050919050565b600060208201905081810360008301526119c081611984565b9050919050565b7f45524332303a2064656372656173656420616c6c6f77616e63652062656c6f7760008201527f207a65726f000000000000000000000000000000000000000000000000000000602082015250565b6000611a2360258361140e565b9150611a2e826119c7565b604082019050919050565b60006020820190508181036000830152611a5281611a16565b9050919050565b60008160011c9050919050565b6000808291508390505b6001851115611ab057808604811115611a8c57611a8b611840565b5b6001851615611a9b5780820291505b8081029050611aa985611a59565b9450611a70565b94509492505050565b600082611ac95760019050611b85565b81611ad75760009050611b85565b8160018114611aed5760028114611af757611b26565b6001915050611b85565b60ff841115611b0957611b08611840565b5b8360020a915084821115611b2057611b1f611840565b5b50611b85565b5060208310610133831016604e8410600b8410161715611b5b5782820a905083811115611b5657611b55611840565b5b611b85565b611b688484846001611a66565b92509050818404811115611b7f57611b7e611840565b5b81810290505b9392505050565b6000611b9782611518565b9150611ba283611641565b9250611bcf7fffffffffffffffffffffffffffffffffffffffffffffffffffffffffffffffff8484611ab9565b905092915050565b6000611be282611518565b9150611bed83611518565b9250828202611bfb81611518565b91508282048414831517611c1257611c11611840565b5b5092915050565b7f45524332304361707065643a2063617020657863656564656400000000000000600082015250565b6000611c4f60198361140e565b9150611c5a82611c19565b602082019050919050565b60006020820190508181036000830152611c7e81611c42565b9050919050565b7f45524332303a206d696e7420746f20746865207a65726f206164647265737300600082015250565b6000611cbb601f8361140e565b9150611cc682611c85565b602082019050919050565b60006020820190508181036000830152611cea81611cae565b9050919050565b7f45524332303a20617070726f76652066726f6d20746865207a65726f2061646460008201527f7265737300000000000000000000000000000000000000000000000000000000602082015250565b6000611d4d60248361140e565b9150611d5882611cf1565b604082019050919050565b60006020820190508181036000830152611d7c81611d40565b9050919050565b7f45524332303a20617070726f766520746f20746865207a65726f20616464726560008201527f7373000000000000000000000000000000000000000000000000000000000000602082015250565b6000611ddf60228361140e565b9150611dea82611d83565b604082019050919050565b60006020820190508181036000830152611e0e81611dd2565b9050919050565b7f45524332303a207472616e736665722066726f6d20746865207a65726f20616460008201527f6472657373000000000000000000000000000000000000000000000000000000602082015250565b6000611e7160258361140e565b9150611e7c82611e15565b604082019050919050565b60006020820190508181036000830152611ea081611e64565b9050919050565b7f45524332303a207472616e7366657220746f20746865207a65726f206164647260008201527f6573730000000000000000000000000000000000000000000000000000000000602082015250565b6000611f0360238361140e565b9150611f0e82611ea7565b604082019050919050565b60006020820190508181036000830152611f3281611ef6565b9050919050565b7f45524332303a207472616e7366657220616d6f756e742065786365656473206260008201527f616c616e63650000000000000000000000000000000000000000000000000000602082015250565b6000611f9560268361140e565b9150611fa082611f39565b604082019050919050565b60006020820190508181036000830152611fc481611f88565b9050919050565b7f45524332303a206275726e2066726f6d20746865207a65726f2061646472657360008201527f7300000000000000000000000000000000000000000000000000000000000000602082015250565b600061202760218361140e565b915061203282611fcb565b604082019050919050565b600060208201905081810360008301526120568161201a565b9050919050565b7f45524332303a206275726e20616d6f756e7420657863656564732062616c616e60008201527f6365000000000000000000000000000000000000000000000000000000000000602082015250565b60006120b960228361140e565b91506120c48261205d565b604082019050919050565b600060208201905081810360008301526120e8816120ac565b9050919050565b60006120fa82611518565b915061210583611518565b925082820390508181111561211d5761211c611840565b5b9291505056fea26469706673582212208c766ae78fbca04af5f4465d80bdfb1a147a7d7888050f81f5ff3b5b82035b7864736f6c63430008110033",
  "linkReferences": {},
  "deployedLinkReferences": {}
}